:100000000C94E9020C9411030C9411030C94110349
:100010000C9411030C9411030C9411030C94110310
:100020000C9411030C9411030C9411030C94110300
:100030000C9411030C9411030C9411030C941103F0
:100040000C94781A0C9411030C94461A0C94201AF0
:100050000C9411030C9411030C9411030C941103D0
:100060000C94C21A0C94110300000000003E5B4F78
:100070005B3E3E6B4F6B3E1C3E7C3E1C183C7E3C08
:10008000181C577D571C1C5E7F5E1C00183C180016
:10009000FFE7C3E7FF0018241800FFE7DBE7FF30A6
:1000A000483A060E2629792926407F050507407F14
:1000B00005253F5A3CE73C5A7F3E1C1C08081C1C87
:1000C0003E7F14227F22145F5F005F5F06097F017D
:1000D0007F006689956A606060606094A2FFA29468
:1000E00008047E040810207E201008082A1C080836
:1000F0001C2A08081E101010100C1E0C1E0C303884
:100100003E3830060E3E0E06000000000000005F84
:1001100000000007000700147F147F14203C7E3C81
:100120002023130864623649562050000807030054
:10013000001C2241000041221C000006090906089B
:10014000083E080800807030000808080808000011
:1001500060600020100804023E5149453E00427F85
:10016000400072494949462141494D331814127FD4
:100170001027454545393C4A494931412111090774
:100180003649494936464949291E000022000000E7
:1001900040340000000814224114141414140041C7
:1001A00022140802015909063E415D594E7C121184
:1001B000127C7F494949363E414141227F414141BC
:1001C0003E7F494949417F090909013E4141517337
:1001D0007F0808087F00417F41002040413F017FA8
:1001E000081422417F404040407F021C027F7F0470
:1001F00008107F3E4141413E7F090909063E4151B9
:10020000215E7F09192946264949493203017F01A8
:10021000033F4040403F1F2040201F3F4038403FA9
:10022000631408146303047804036159494D4300BF
:100230007F4141410204081020004141417F0402F6
:10024000010204404040404000030708002054548D
:1002500078407F284444383844444428384444286B
:100260007F385454541800087E090218A4A49C78BE
:100270007F0804047800447D40002040403D007F1A
:100280001028440000417F40007C047804787C08FA
:100290000404783844444438FC18242418182424CE
:1002A00018FC7C08040408485454542404043F44B3
:1002B000243C4040207C1C2040201C3C4030403CE2
:1002C00044281028444C9090907C4464544C440042
:1002D00008364100000077000000413608000201A6
:1002E0000204023C2623263C1EA1A161123A404092
:1002F000207A38545455592155557941225454780F
:1003000042215554784020545579400C1E527212A7
:100310003955555559395454545939555454580030
:1003200000457C410002457D420001457C407D1234
:1003300011127DF0282528F07C5455450020545496
:100340007C547C0A097F4932494949323A44444441
:100350003A324A4848303A4141217A3A424020787C
:10036000009DA0A07D3D4242423D3D4040403D3C7D
:1003700024FF2424487E4943662B2FFC2F2BFF09A2
:1003800029F620C0887E0903205454794100004496
:100390007D413048484A32384040227A007A0A0A81
:1003A000727D0D19317D2629292F282629292926F4
:1003B00030484D4020380808080808080808382F39
:1003C00010C8ACBA2F102834FA00007B00000814C3
:1003D0002A142222142A14085500550055AA55AA99
:1003E00055AAFF55FF55FF000000FF00101010FF39
:1003F00000141414FF001010FF00FF1010F010F094
:10040000141414FC001414F700FF0000FF00FF1484
:1004100014F404FC141417101F10101F101F1414D0
:10042000141F00101010F0000000001F101010101A
:100430001F10101010F010000000FF10101010100E
:1004400010101010FF10000000FF140000FF00FF4C
:1004500000001F10170000FC04F4141417101714E8
:1004600014F404F40000FF00F7141414141414140A
:10047000F700F7141414171410101F101F1414147D
:10048000F4141010F010F000001F101F0000001FE7
:1004900014000000FC140000F010F01010FF10FF1A
:1004A000141414FF141010101F00000000F010FFAF
:1004B000FFFFFFFFF0F0F0F0F0FFFFFF0000000093
:1004C00000FFFF0F0F0F0F0F3844443844FC4A4A17
:1004D0004A347E02020606027E027E0263554941CC
:1004E000633844443C04407E201E2006027E020203
:1004F00099A5E7A5991C2A492A1C4C7201724C3017
:100500004A4D4D303048784830BC625A463D3E49ED
:100510004949007E0101017E2A2A2A2A2A44445F91
:10052000444440514A444040444A51400000FF0185
:1005300003E080FF000008086B6B08361236243693
:10054000060F090F060000181800000010100030F8
:1005500040FF0101001F01011E00191D1712003C80
:100560003C3C3C000000000000000000250028008A
:100570002B00000000080002010000030407000037
:1005800000000000000000000000230026002900F9
:1005900000000000240027002A001F1C1F1E1F1E31
:1005A0001F1F1E1F1E1F040404040404040402026F
:1005B00002020202030303030303010204081020E2
:1005C0004080010204081020010204081020E11BF1
:1005D0008C2911241FBECFEFD8E0DEBFCDBF12E0C3
:1005E000A0E0B1E0E8EBFCE502C005900D92AE3F63
:1005F000B107D9F724E0AEEFB2E001C01D92A43EEE
:10060000B207E1F712E0C8EED2E004C02197FE0184
:100610000E944B2CC73ED107C9F70E944F1D0C9476
:100620004F2E0C9400002091980381E0213208F0B5
:1006300044C08091BF038111FCCF8091970392E069
:100640009093BF0391E09093BE039FEF9093BD03FF
:100650001092BC032093BB03A7E7B3E0E9E9F3E002
:1006600090E0291331C01092BA039091BA03880F19
:10067000892B8093BA038091B903813049F5109298
:10068000B9038091BA038093BB008091BC0083FDC5
:10069000F8CF85EC8093BC008091BF038230E1F3FA
:1006A0008091BD038F3FB1F08091BD038032A1F0F6
:1006B0008091BD03803391F084E010927603109214
:1006C00098031092750308953D9131939F5FC9CFB0
:1006D00085EEE0CF80E0F1CF82E0EFCF83E0EDCF99
:1006E000089508958F929F92AF92BF92CF92DF921A
:1006F000EF92FF92CF93DF93A091D50430E0811168
:100700003A2F8091D60490E0880F991FAC014A5788
:100710005A4FC090DB04D090DC04E090DD04F090F0
:10072000DE0460E070E0CB01FA01C591D49128812C
:100730002A2323130FC04B015C012FEF821A920A68
:10074000A20AB20A6C157D058E059F0570F060E067
:1007500070E0CB01DF91CF91FF90EF90DF90CF90D1
:10076000BF90AF909F908F900895C501B401DCCFEA
:100770000895AF92BF92CF92DF92EF92FF920F93C4
:100780001F93CF93DF936C017B018B01040F151F27
:10079000EB015E01AE18BF08C017D10759F069918F
:1007A000D601ED91FC910190F081E02DC6010995F3
:1007B000892B79F7C501DF91CF911F910F91FF90A0
:1007C000EF90DF90CF90BF90AF900895EEE9F4E006
:1007D000448155816081718184EA94E00C94B9036D
:1007E000FC01538D448D252F30E0842F90E0821B37
:1007F000930B541710F0CF96089501970895FC01BC
:10080000918D828D981761F0A28DAE0FBF2FB11D13
:100810005D968C91928D9F5F9F73928F90E008956B
:100820008FEF9FEF0895FC01918D828D981731F025
:10083000828DE80FF11D858D90E008958FEF9FEF79
:100840000895FC01918D228D892F90E0805C9F4F4F
:10085000821B91098F739927089582EE93E00E947D
:10086000210421E0892B09F420E0822F089580E003
:1008700090E0892B29F00E942D0481110C94000036
:100880000895FC01A48DA80FB92FB11DA35ABF4F25
:100890002C91848D90E001968F739927848FA6897F
:1008A000B7892C93A089B1898C91837080648C93D3
:1008B000938D848D981306C00288F389E02D808182
:1008C0008F7D80830895EF92FF920F931F93CF93B4
:1008D000DF93EC0181E0888F9B8D8C8D98131AC07B
:1008E000E889F989808185FF15C09FB7F894EE8962
:1008F000FF896083E889F9898081837080648083BF
:100900009FBF81E090E0DF91CF911F910F91FF9009
:10091000EF900895F62E0B8D10E00F5F1F4F0F73B1
:100920001127E02E8C8D8E110CC00FB607FCFACF6C
:10093000E889F989808185FFF5CFCE010E944104C5
:10094000F1CFEB8DEC0FFD2FF11DE35AFF4FF0823D
:100950009FB7F8940B8FEA89FB8980818062CFCFA3
:10096000CF93DF93EC01888D8823B9F0AA89BB89E6
:10097000E889F9898C9185FD03C0808186FD0DC0D1
:100980000FB607FCF7CF8C9185FFF2CF808185FFF2
:10099000EDCFCE010E944104E9CFDF91CF910895C0
:1009A000833081F028F4813099F08230A9F00895E5
:1009B0008730A9F08830C9F08430B1F4809180008C
:1009C0008F7D03C0809180008F7780938000089591
:1009D00084B58F7784BD089584B58F7DFBCF8091DA
:1009E000B0008F778093B00008958091B0008F7D24
:1009F000F9CFCF93DF93282F30E0F901EE58FA4F6B
:100A00008491F901E654FA4FD491F901EA55FA4F6D
:100A1000C491CC23A1F081110E94D004EC2FF0E00E
:100A2000EE0FFF1FEA57FA4FA591B491EC91ED2319
:100A300081E090E009F480E0DF91CF91089580E0BB
:100A400090E0FACF1F93CF93DF93282F30E0F90186
:100A5000EE58FA4F8491F901E654FA4FD491F90116
:100A6000EA55FA4FC491CC23A9F0162F81110E94A8
:100A7000D004EC2FF0E0EE0FFF1FE859FA4FA591DC
:100A8000B4918FB7F894EC91111108C0D095DE2382
:100A9000DC938FBFDF91CF911F910895DE2BF8CFAC
:100AA000CF93DF93C82FD62F60E08091BE040E94C1
:100AB00022059FEF9C0F8091C104890F8850CEBD05
:100AC00000000DB407FEFDCF2EB52D2FC93038F430
:100AD000E091BF04F091C004E80FF11D20812EBD0C
:100AE00000000DB407FEFDCF2EB5981738F361E076
:100AF0008091BE04DF91CF910C942205CF93C8E082
:100B000060E08C2F0E945005C150D1F7CF9108951D
:100B10001092C1031092C0031092760310929803B2
:100B20001092BF0381E08093BE031092B90361E08D
:100B300082E10E94220561E083E10E942205E9EB47
:100B4000F0E080818E7F808380818D7F808388E448
:100B50008093B80085E48093BC0080E793E0909395
:100B600074038093730381E793E0909372038093FF
:100B700071030895CF93DF9390E0FC01E654FA4FA0
:100B800024918A559A4FFC0184918823D1F090E0FA
:100B9000880F991FFC01E057FA4FA591B491FC0111
:100BA000E859FA4FC591D491623071F49FB7F89427
:100BB0003C91822F809583238C93E8812E2B288370
:100BC0009FBFDF91CF9108958FB7F894EC912E2BB2
:100BD0002C938FBFF6CF3FB7F89480914503909147
:100BE0004603A0914703B091480326B5A89B05C0D2
:100BF0002F3F19F00196A11DB11D3FBFBA2FA92F9C
:100C0000982F8827BC01CD01620F711D811D911D98
:100C100042E0660F771F881F991F4A95D1F7089504
:100C20008F929F92AF92BF92CF92DF92EF92FF92FC
:100C30006B017C010E94EB054B015C01C114D104E6
:100C4000E104F104B9F00E94EB05681979098A09F9
:100C50009B09683E73408105910580F321E0C21A2B
:100C6000D108E108F10888EE880E83E0981EA11CE7
:100C7000B11CE4CFFF90EF90DF90CF90BF90AF908A
:100C80009F908F900895CF92DF92EF92FF920F93F3
:100C90001F93CF93DF93CDB7DEB7C054D1400FB6CB
:100CA000F894DEBF0FBECDBF2FB7F89480916D03CF
:100CB00090916E03A0916F03B09170032FBF40918C
:100CC000D7045091D8046091D9047091DA048C0152
:100CD0009D01041B150B260B370BB901A801403DE4
:100CE00057406105710590F48091DF04C05CDE4FD0
:100CF0000FB6F894DEBF0FBECDBFDF91CF911F912D
:100D00000F91FF90EF90DF90CF9008958093D704DC
:100D10009093D804A093D904B093DA041092D2042B
:100D20001092D1041092D0041092CF041092CE04ED
:100D300061E08091D3040E9422056AEF70E080E0B8
:100D400090E00E94100661E08091D3040E94BA05F1
:100D500060E08091D3040E94220564E170E080E0AD
:100D600090E00E941006F89461E08091D3040E9404
:100D700022058BE990E00197F1F762E08091D304BE
:100D80000E94BA0583E290E00197F1F780E00E94AB
:100D90007203672B682B692B29F41092DF04789477
:100DA00080E0A4CF81E00E947203672B682B692B3F
:100DB000A1F38E010F5F1F4F6E012FEBC21A2EEFB2
:100DC000D20A780180E00E947203F7016083718388
:100DD0008283938381E00E947203F70164837583A9
:100DE00086839783F8E0EF0EF11CEC14FD0451F7B5
:100DF000789430E020E0F801C080D180E280F38078
:100E00004481558166817781C114D104E104F104E4
:100E100029F0411551056105710519F41092DF049F
:100E2000BFCFF90183E0F595E7958A95E1F7E253A5
:100E3000FB4F8081880FC416D506E606F70610F131
:100E400080832F5F3F4F085F1F4F2832310599F68F
:100E50004091D2042091CE048091CF04280F3327F3
:100E6000331F8091D004280F311D8091D104820F4F
:100E7000932F911D99274817190681F681E08093D9
:100E8000DF0434CF8160DCCF85ED8093BC0080919E
:100E9000BC0084FDFCCF1092BF0308952091210374
:100EA000260F3327331F21323105ECF42091BF0385
:100EB000FC0190E080E0243069F082E00895A09188
:100EC00021032191AC014F5F5C4FA40FB52FB11DE1
:100ED0002C930196861798F380912103680F6093F5
:100EE000210380E0089581E008950895E091C10311
:100EF0008091C003E81730F4F0E0EE53FC4F80819E
:100F000090E008958FEF9FEF08959091C103809135
:100F1000C0032FEF3FEF981748F4E92FF0E0EE53AE
:100F2000FC4F208130E09F5F9093C103C901089579
:100F30008091C0039091C103891B990B0895CF92B2
:100F4000DF92EF92FF920F931F93CF93DF937C0179
:100F5000CB018A0120917503222389F0EB016B01FB
:100F6000C40ED51ECC15DD0569F06991D701ED9150
:100F7000FC910190F081E02DC7010995F3CF642F1A
:100F80000E944E07C801DF91CF911F910F91FF90F2
:100F9000EF90DF90CF900895CF93DF931F92CDB75E
:100FA000DEB76983209175032223F9F0209198031D
:100FB000203258F021E030E0FC013383228390E0BE
:100FC00080E00F90DF91CF91089580917603E82F14
:100FD000F0E0E958FC4F998190838F5F809376030E
:100FE0008093980381E090E0ECCF61E0CE01019620
:100FF0000E944E07F7CFCF93C62F91E090937503D1
:1010000098E6909397031092760310929803682FB6
:101010008FE794E00E94CC076C2F8FE794E00E944A
:10102000CC07CF910C941303EF92FF920F931F9371
:10103000CF93DF93FC017901762F542F258922234A
:1010400091F0223020F080858150861B782F8FEF21
:10105000820F823018F452855150541B20FF03C078
:10106000872F752F582F77FD72C0272F072E000C62
:10107000330BC481D5812C173D070CF068C0852F38
:1010800090E006811781801791070CF060C0668D93
:1010900043E0959587954A95E1F7689F8001699FA0
:1010A000100D1124A3E035952795AA95E1F7878DBA
:1010B00090A1800F911F820F931FDC018C91372F1D
:1010C0003770452F477001A112A1080F111DD801DB
:1010D0009C91923018F027E0231B322F2FEF290F1D
:1010E000223018F427E0241B422F90FF03C0932FD7
:1010F000342F492F0E94172C990F990F990F390FF0
:10110000880F880F880F480F642F70E083E0759573
:1011100067958A95E1F76C9FC0016D9F900D7C9F4C
:10112000900D1124830F911D37FD9A95038CF48D3A
:10113000E02DE80FF91F477081E090E001C0880FB3
:101140004A95EAF72081EF2849F0822B8083DF91CE
:10115000CF911F910F91FF90EF900895809582237A
:10116000F5CF0895FC016370658B8481958126819C
:101170003781613039F0633029F091878087338778
:1011800022870895318720879387828708950C945A
:10119000B2082F923F924F925F926F927F928F92FE
:1011A0009F92AF92BF92CF92DF92EF92FF920F93F6
:1011B0001F93CF93DF93CDB7DEB769970FB6F8943F
:1011C000DEBF0FBECDBF1C017B876A874A01722E2E
:1011D0001E830D83FC82EB82CA82DC0158962D911E
:1011E0003C9159972115310509F0CFC018968D9182
:1011F0009C911997681779070CF08BC11A968D91FD
:101200009C91481759070CF084C1D12CCB01EA817D
:10121000B6E0EB9F800D911D1124181619060CF0F5
:1012200078C1C60123E0880F991F2A95E1F7840F42
:10123000951F181619060CF06CC1D10157968C91A8
:10124000811104C0BFEAB71508F47394D101ED9180
:10125000FC910284F385E02DC1010995EA85FB85A7
:10126000FD87EC875F01198288E690E08E1B9F0B5B
:101270009C0145E0749E200D311D11243B872A8777
:10128000598120E0553029F0EA85FB85EA0DFB1DE8
:1012900024912401712C612C622F70E0798768877A
:1012A000F101A081B18120FF59C0FA81F13009F02C
:1012B00048C01C96ED91FC912D813E81A401460D04
:1012C000571DB501C1010995E885F985F595E795A3
:1012D0002E2F6FEF661A760A4C0C5D1C78E06716AD
:1012E0007104D1F68FEFA81AB80AAC85BD85AC0D94
:1012F000BD1DBD87AC87B981BF5FB983B63009F02A
:10130000BFCFD101ED91FC910688F789E02DC10195
:1013100069960FB6F894DEBF0FBECDBFDF91CF91B7
:101320001F910F91FF90EF90DF90CF90BF90AF9003
:101330009F908F907F906F905F904F903F902F90F5
:1013400009941E96ED91FC91ED80FE808601960138
:10135000A2016C857D85C1010995B6CF2D813E81A5
:101360004B815C812417350709F4AECF5A81513087
:1013700031F41C96ED91FC912B813C819FCF1E9600
:10138000ED91FC91EB80FC80E1CFF90134969491D2
:10139000329745915491791AB7E07B9E400D511DCB
:1013A0001124F901259134913F872E87FA01459048
:1013B0005490FA01329634913887319664916F8354
:1013C00032967490319664907A81723008F489C0B4
:1013D000A72C072C000CBB08862D062C000C990BA3
:1013E0009C838B83D101ED91FC910284F385E02DE8
:1013F000C1010995BA81CB2ED12CAC9CC001AD9C0A
:10140000900DBC9C900D1124EA85FB85E80FF91F17
:10141000FD87EC871982B12CA12CDB8ACA8A940142
:10142000260D311D67FC3A953D8B2C8B4A855B85DB
:10143000470D511D77FC5A955F8B4E8B5F81A5162A
:1014400008F05FCF8A2D90E04B815C81480F591FD7
:101450006A897B89469F9001479F300D569F300DCA
:101460001124D901A80DB91DBB87AA876C847D847E
:10147000198E188EEC89FD89E80FF91FF98BE88B1E
:101480008981F88D8F0F2885F21708F03CC087708E
:1014900041F4C2010196EE85FF85E40DF51DB4907F
:1014A0002C01B7FE15C0D101ED91FC91BA81B1308C
:1014B000E9F40484F585E02D2D813E814889598920
:1014C0006E897F89888D998D680F791FC101099573
:1014D000BB0CA88DB98D1196B98FA88F6C0C7D1C93
:1014E000CFCF1C821B82B12CA12C7CCF0684F78528
:1014F000E02DED80FE80860196014A855B85B30173
:10150000C1010995E5CFB981E885BE0FB983A394E0
:1015100095CF69960FB6F894DEBF0FBECDBFDF91B1
:10152000CF911F910F91FF90EF90DF90CF90BF90E0
:10153000AF909F908F907F906F905F904F903F9073
:101540002F900895AF92BF92CF92EF92FF920F9398
:101550001F93CF93DF93EC01262F888D998D0097F1
:1015600009F04FC06A30C9F48C8948E0849F90012B
:1015700011248E859F85820F931F9F878E871D86DE
:101580001C8681E090E0DF91CF911F910F91FF9039
:10159000EF90CF90BF90AF9008956D3091F3CC88CD
:1015A0008E898823C1F08C859D85E6E0CE9E800DD6
:1015B000911D1124488559858417950764F04E853F
:1015C0005F851D861C86F8E0CF9EC0011124840F24
:1015D000951F9F878E87EA88FB88088919894E8521
:1015E0005F856C857D85CE010E94C9082C898C851C
:1015F0009D8536E0239F800D911D11249D878C874A
:10160000C0CF6A3079F41D861C86FC013696E491C1
:101610002C898E859F85E29F800D911D11249F87C7
:101620008E87AFCF6D3009F4ACCFAC014C5F5F4F0C
:10163000FA013491631708F4A4CF3196E491E617C8
:1016400008F49FCFFA0144913297A590B490362FB9
:10165000341BF7E03F9FA00CB11C1124F50132961A
:1016600034913196E4913323A1F1EE2391F1CC88AA
:10167000F5013596E4914E89442301F10E2E000CBC
:10168000FF0BE30FF11DCE9EA001CF9E500D112444
:101690006C857D85460F571F6885798546175707E6
:1016A0006CF04E855F851D861C860696FC01849134
:1016B000C89E400D511D11245F874E87EA88FB8824
:1016C000088919894E855F856C857D85CE010E94CC
:1016D000C908F5013496E4912C898C859D85E29F9B
:1016E000800D911D11248ACF6F927F928F929F92CD
:1016F000AF92BF92CF92DF92EF92FF920F931F9320
:10170000CF93DF93EC016B015A0139014801E88165
:10171000F9810284F385E02D0995E881F981028839
:10172000F389E02D87019301A501B601CE0109954A
:10173000A501480D591D41505109E881F9810288E0
:10174000F389E02D9301B601CE010995E881F98175
:101750000088F189E02D9401A501B601CE0109951B
:10176000C60CD71CB60161507109E881F981008867
:10177000F189E02D9401A501CE010995E881F98157
:101780000688F789E02DCE01DF91CF911F910F914F
:10179000FF90EF90DF90CF90BF90AF909F908F9091
:1017A0007F906F9009948F929F92AF92BF92CF9249
:1017B000DF92EF92FF920F931F93CF93DF936C0111
:1017C0005B014A01E901DC01ED91FC9162177307AD
:1017D00001F5048CF58DE02DCA010417150714F4EA
:1017E000C8018A01081B190B98012F5F3F4F870121
:1017F000A401B501C6010995DF91CF911F910F9109
:10180000FF90EF90DF90CF90BF90AF909F908F9020
:1018100008954017510769F4068CF78DE02DCB0130
:101820002617370714F4C901EB019E01281B390B59
:10183000DCCF0284F385E02D0995D601ED91FC9172
:101840000488F589E02D9E01A401B501C601099522
:10185000D601ED91FC910688F789E02DC601DF9154
:10186000CF911F910F91FF90EF90DF90CF90BF909D
:10187000AF909F908F900994EF92FF920F931F93D8
:10188000DC011A960D911C911B9718962D913C9195
:101890001997ED91FC9100A0F1A1E02D7B0150E0A2
:1018A00040E070E060E009951F910F91FF90EF908C
:1018B00008954F925F926F927F928F929F92AF9214
:1018C000BF92CF92DF92EF92FF920F931F93CF932D
:1018D000DF936C012B015A0139014801DC01ED91C4
:1018E000FC910284F385E02D0995E201640C751CDE
:1018F000D601ED91FC91C615D7055CF40088F189FD
:10190000E02D87019401A501BE01C601099521962C
:10191000EFCF0688F789E02DC601DF91CF911F91A7
:101920000F91FF90EF90DF90CF90BF90AF909F907E
:101930008F907F906F905F904F9009948F929F92BD
:10194000AF92BF92CF92DF92EF92FF920F931F93CD
:10195000CF93DF93EC015B014A016901E881F981D2
:101960000284F385E02D099595012C0D3D1D215034
:101970003109E881F9810488F589E02D7801840135
:10198000A401B501CE010995E881F9810688F7899E
:10199000E02DCE01DF91CF911F910F91FF90EF903D
:1019A000DF90CF90BF90AF909F908F9009948F92CF
:1019B0009F92AF92BF92CF92DF92EF92FF920F93DE
:1019C0001F93CF93DF93EC015B014A01690178011A
:1019D000E881F9810284F385E02D0995C80CD91CB2
:1019E000860101501109E881F9810488F589E02D0B
:1019F0009501A401B501CE010995E881F981068818
:101A0000F789E02DCE01DF91CF911F910F91FF90CB
:101A1000EF90DF90CF90BF90AF909F908F90099400
:101A2000EF92FF920F931F93DC01ED91FC9100A0C8
:101A3000F1A1E02D09951F910F91FF90EF9008956E
:101A40000F931F93DC01ED91FC91068CF78DE02D37
:101A500009951F910F9108950F931F93DC01ED914C
:101A6000FC91048CF58DE02D09951F910F9108953F
:101A7000DC01ED91FC910084F185E02D09942F9219
:101A80003F924F925F926F927F928F929F92AF920E
:101A9000BF92CF92DF92EF92FF920F931F93CF935B
:101AA000DF9300D000D000D0CDB7DEB73C016A0193
:101AB0003E832D83FC82EB825801A41AB50AB7FE3F
:101AC00003C0B194A194B1088D809E80861A970AB4
:101AD00097FE03C09194819491088A149B045CF052
:101AE000902F812F0D811E819D838E839C2D8D2DA6
:101AF0006B01692F782F0C151D055CF09D818E817F
:101B00007E836D83692F782F902F812F8601C92EB8
:101B1000D82E1601201A310A2B012D813E81421A3E
:101B2000530A57FE03C0519441945108710137FE86
:101B300003C03FEFE31AF30AF594E7948D819E8189
:101B4000861797075CF5A1E0B0E0BA83A983C016B9
:101B5000D1064CF1D301ED91FC910484F585E02D83
:101B60002B813C81A8016D817E818A149B041CF02D
:101B70004D815E81B801C3010995E418F508F7FEAF
:101B80000AC02D813E8189819A81280F391F3E83A9
:101B90002D83E20CF31C0F5F1F4FD9CF2FEF3FEFC8
:101BA0003A832983D4CF26960FB6F894DEBF0FBEB2
:101BB000CDBFDF91CF911F910F91FF90EF90DF90FC
:101BC000CF90BF90AF909F908F907F906F905F90DD
:101BD0004F903F902F90089590E080E0089561E04D
:101BE00086E00E94220562E370E080E090E00E94BF
:101BF000100660E086E00E94220562E370E080E06B
:101C000090E00C9410069091BF039111FCCF282F07
:101C100091E09093BF039093BE033FEF3093BD03D9
:101C20001092BC03380F3093BB039093BA0390918A
:101C3000BA03906D9093BA039091B903913019F55E
:101C40001092B9039091BA039093BB009091BC009D
:101C500093FDF8CF95EC9093BC009091BF03913029
:101C6000E1F39091BC03981710F42091BC03A9E90B
:101C7000B3E0E2ECF3E080E0821307C01092C1030E
:101C80008093C003089595EEE6CF9D9191938F5F69
:101C9000F3CFCF92DF92EF92FF920F931F93CF93E8
:101CA000DF9300D000D000D01F92CDB7DEB781E027
:101CB0008093750388E680939703109276031092C1
:101CC000980360E08FE794E00E94CC070E94130322
:101CD00088E090E00E94030E8FE794E00E94850761
:101CE0009C0194E0359527959A95E1F72F7033275D
:101CF000922F990F990F122F191B110F180F8FE7A1
:101D000094E00E9485079C0144E0359527954A950B
:101D1000E1F72F703327922F990F990F022F091B8C
:101D2000000F080F8FE794E00E9485078F73282F1C
:101D300030E054E0359527955A95E1F7922F990FA9
:101D4000990FF22EF91AFF0CF80E8FE794E00E941B
:101D50008507C82E8FE794E00E9485079C0164E008
:101D6000359527956A95E1F72F703327922F990FB4
:101D7000990FE22EE91AEE0CE80E8FE794E00E942C
:101D800085079C0174E0359527957A95E1F72F70CA
:101D90003327922F990F990FD22ED91ADD0CD80E16
:101DA0008FE794E00E948507AC01E4E055954795E4
:101DB000EA95E1F74F705527942F990F990F242F2B
:101DC000291B220F280F3D2DA701B8018C2D90E073
:101DD00027960FB6F894DEBF0FBECDBFDF91CF912F
:101DE0001F910F91FF90EF90DF90CF900895CF93C8
:101DF000DF93EC0180919E0490919F040097E9F09D
:101E00006881798161157105B1F04091A00450910C
:101E1000A1042C813D814217530768F00E94482E8F
:101E20008C819D819093A3048093A2041D821C82C7
:101E3000DF91CF9108950E94ED2C88819981909334
:101E40009F0480939E048A819B819093A104809338
:101E5000A0048C819D819093A3048093A204198295
:101E600018821B821A82E2CFCF93DF93EC01888124
:101E70009981009711F00E94ED2C198218821D8221
:101E80001C821B821A82DF91CF910895FC01808110
:101E900091810C94ED2C0E94332E0F931F93CF93BE
:101EA000DF93EC0188819981009759F02A813B8169
:101EB0002617370730F081E0DF91CF911F910F9106
:101EC00008958B016F5F7F4F0E94762D009759F028
:101ED000998388831B830A832C813D81232B59F7A7
:101EE000FC011082E8CF80E0E7CFEF92FF920F93E2
:101EF0001F93CF93DF936115710541F480E0DF916B
:101F0000CF911F910F91FF90EF90089541155105CA
:101F1000B1F07B01EC010C811D81040F151FB8018C
:101F20000E944D0F882351F3288139818C819D8136
:101F3000B701820F931F0E94482E1D830C8381E0FE
:101F4000DECFCF93DF93EC0141E050E067E072E039
:101F50000E94750F811103C0CE010E94340FCE0183
:101F6000DF91CF910895CF93DF93EC01FB01448182
:101F70005581608171810E94750F811103C0CE016E
:101F80000E94340FCE01DF91CF910895EF92FF921E
:101F90000F931F93CF93DF93CDB7DEB728970FB67C
:101FA000F894DEBF0FBECDBF7C01CB014AE08E01AD
:101FB0000F5F1F4FB8010E949C29F801019000207B
:101FC000E9F73197AF01401B510BB801C7010E94DF
:101FD000750F28960FB6F894DEBF0FBECDBFDF9108
:101FE000CF911F910F91FF90EF900895FB01019009
:101FF0000020E9F73197AF01461B570B0C94750F82
:10200000FB0144815581608171810C94750FEF92C1
:10201000FF920F931F93CF93DF93EC017B018A0113
:10202000BA010E944D0F81110BC0CE010E94340FE6
:10203000CE01DF91CF911F910F91FF90EF90089506
:102040001D830C83B701888199810E94482EF0CFAF
:10205000FB0101900020E9F73197AF01461B570BB8
:102060000C9407100F931F93CF93DF93CDB7DEB778
:1020700062970FB6F894DEBF0FBECDBF8C01CB01C7
:10208000F8011182108213821282158214824AE0B2
:10209000BE016F5F7F4F0E949C29BE016F5F7F4F23
:1020A000C8010E94281062960FB6F894DEBF0FBEDA
:1020B000CDBFDF91CF911F910F910895CF93DF9303
:1020C000EC01FB018617970749F06081718161156A
:1020D000710541F0448155810E940710CE01DF91C6
:1020E000CF9108950E94340FF9CFFC011182108224
:1020F00013821282158214826115710551F0FB0161
:1021000001900020E9F73197AF01461B570B0C9463
:1021100007100895FC01458D50E0672B39F470E0FD
:1021200060E0FC01838D948D0C94412E6FEF70E084
:10213000F8CF0F931F93CF93DF9366EE71E08EE994
:1021400094E00E9428108091A2049091A30426E0BC
:10215000289F8001299F100D112410935303009391
:102160005203C8E0D0E067E072E08EE994E00E949C
:10217000F60F2197C1F780E290E0801B910B97FD4D
:102180000196959587959093B1048093B004109231
:10219000B3041092B20470E060E084EA94E00E941C
:1021A0008A100E94E603DF91CF911F910F910C944A
:1021B0007E052F923F924F925F926F927F928F9205
:1021C0009F92AF92BF92CF92DF92EF92FF920F93C6
:1021D0001F93CF93DF93CDB7DEB766970FB6F89412
:1021E000DEBF0FBECDBF80E10E94F904892B09F04C
:1021F00085C36CE271E080E090E00E9410060E94CE
:10220000490E062F482E652E712C852F6CE00E94FA
:10221000172C292E312C10E0E42EF12CC32ED12CBA
:10222000A22EB12C512C80914D0390914E03019719
:1022300011F40E94EF0D0E94490E8FE00E94F904F4
:10224000892BF1F46CE271E080E090E00E941006CE
:1022500080914D0390914E03019711F40E94EF0D70
:102260008091570390915803009709F009C32FEF0D
:10227000621A720A38E16316710414F0712C612C31
:1022800081E10E94F904892BE1F46CE271E080E0C5
:1022900090E00E94100680914D0390914E030197AB
:1022A00011F40E94EF0D809157039091580300970D
:1022B00009F0F5C291E0691A710818F4B7E16B2EC4
:1022C000712C80E10E94F904892B09F0F6C26CE2BE
:1022D00071E080E090E00E94100680914D039091A3
:1022E0004E03019709F0ECC20E94EF0D42E04C8BC7
:1022F000B301CE010E962AE0621671040CF0E3C21F
:102300000E94321061ED72E0CE0108960E947510B5
:10231000BE01625F7F4FCE0108960E94B30FBC01E1
:102320008EE994E00E945E10CE0108960E94460F4E
:10233000CE010E960E94460F8091A2049091A304B4
:1023400046E0489F9001499F300D11243E8B2D8B14
:102350003093530320935203F8E08F2E912C67E0C3
:1023600072E08EE994E00E94F60F81E0881A9108ED
:10237000B1F780E290E02D893E89821B930B97FD97
:102380000196959587959093B1048093B00410922F
:10239000B3041092B20470E060E084EA94E00E941A
:1023A0008A100E94E6030E947E053C89313009F4C0
:1023B00042CF0E94490E8FE00E94F904892BA9F4B4
:1023C0006CE271E080E090E00E94100680914D0385
:1023D00090914E03019711F40E94EF0D0F5F1F4F74
:1023E0000C33110514F010E000E081E10E94F904C3
:1023F000892B99F46CE271E080E090E00E94100675
:1024000080914D0390914E03019711F40E94EF0DBE
:102410000150110910F40BE310E080E10E94F9046F
:10242000892B09F055C26CE271E080E090E00E94D7
:10243000100680914D0390914E03019709F04BC215
:102440000E94EF0D83E08C8BB801CE010E960A300E
:1024500011050CF043C20E9432106AED72E0CE0109
:1024600008960E947510BE01625F7F4FCE010896EC
:102470000E94B30FBC018EE994E00E945E10CE0171
:1024800008960E94460FCE010E960E94460F80913C
:10249000A2049091A30436E0389F1001399F300CBC
:1024A0001124309253032092520378E0872E912C0E
:1024B00067E072E08EE994E00E94F60F41E0841A32
:1024C0009108B1F780E290E08219930997FD019697
:1024D000959587959093B1048093B0041092B304BE
:1024E0001092B20470E060E084EA94E00E948A10E6
:1024F0000E94E6030E947E058C89823009F459CF40
:102500000E94490E8FE00E94F904892BC1F46CE20D
:1025100071E080E090E00E94100680914D03909160
:102520004E03019711F40E94EF0D9FEFE91AF90A8B
:1025300020E2E216F1041CF0EE24E394F12C81E198
:102540000E94F904892BB9F46CE271E080E090E01C
:102550000E94100680914D0390914E03019711F453
:102560000E94EF0D31E0E31AF1081E141F041CF065
:102570004FE1E42EF12C80E10E94F904892B09F04F
:10258000B2C16CE271E080E090E00E9410068091A0
:102590004D0390914E03019709F0A8C10E94EF0DE1
:1025A00044E04C8BB701CE010E962AE0E216F1040E
:1025B0000CF09FC10E9432106BEE71E0CE010896C4
:1025C0000E947510BE01625F7F4FCE0108960E9487
:1025D000B30FBC018EE994E00E945E10CE01089614
:1025E0000E94460FCE010E960E94460F8091A204D3
:1025F0009091A30436E0389F1001399F300C1124CC
:10260000309253032092520338E0832E912C67E0DE
:1026100072E08EE994E00E94F60F41E0841A91087E
:10262000B1F780E290E08219930997FD01969595A4
:1026300087959093B1048093B0041092B3041092E4
:10264000B20470E060E084EA94E00E948A100E9484
:10265000E6030E947E058C89833009F451CF94E013
:102660009C8B2C89243009F44BC19C89953009F44A
:10267000FAC12AE0802F622F0E94172C982F990F01
:10268000890F880F982E900EE89466F8862D0E9488
:10269000172C982F990F890F880F882E860C8E2D56
:1026A0000E94172C282E220C280E220C2E0C8C2D6A
:1026B0000E94172C682E660C680E660C6C0C8A2D16
:1026C0000E94172C282F220F280F220FA20EBB24A6
:1026D000B394E8E63E2EF6E07F2EA0E2EA2EF12C3F
:1026E0009C89963009F073C20E94490E8FE00E94C7
:1026F000F904892BB9F46CE271E080E090E00E946B
:10270000100680914D0390914E03019711F40E94A1
:10271000EF0D2FEF421A520A37E04316510414F01E
:10272000512C412C81E10E94F904892BA9F46CE21F
:1027300071E080E090E00E94100680914D0390913E
:102740004E03019711F40E94EF0D41E0441A510825
:1027500018F436E0432E512C80E10E94F904892BB5
:1027600009F048C06CE271E080E090E00E94100641
:1027700080914D0390914E03019711F40E94EF0D4B
:10278000B0927503309297031092760310929803DB
:1027900060E08FE794E00E94CC0760E38FE794E06D
:1027A0000E94CC07692D8FE794E00E94CC07682D2A
:1027B0008FE794E00E94CC07642D8FE794E00E949D
:1027C000CC07622D8FE794E00E94CC07662D8FE73F
:1027D00094E00E94CC076A2D8FE794E00E94CC071A
:1027E0000E94130304EF11E00E9499100150110997
:1027F000D9F71C8A9CE0949DB001959D700D112421
:1028000060507F4FCE0108960E947510CE01089649
:102810000E94F70ECE0108960E94460F8091A204F6
:102820009091A304789E6001799ED00C1124D092DF
:102830005303C092520308E010E067E072E08EE9B3
:1028400094E00E94F60F01501109B9F7C7018C19E5
:102850009D0997FD0196959587959093B104809376
:10286000B0041092B3041092B20470E060E084EA05
:1028700094E00E948A100E94E6030E947E0530CFF9
:10288000019709F0FDCC4FEF241A340A8DE0281689
:10289000310409F0F5CC22242394312CF1CC01979A
:1028A00009F00FCD31E0231A3108121413040CF48F
:1028B00008CDACE02A2E312C04CD81E08C8B18CDD4
:1028C00092E09C8B15CD0E94321066ED72E01CCD1B
:1028D00092E09C8BB9CD23E02C8BB6CD0E943210B8
:1028E0006FED72E0BCCD83E08C8B5CCE94E09C8B72
:1028F00059CE0E94321060EF71E060CE1C8AB5CED6
:102900000E94490E8FE00E94F904892BC1F46CE209
:1029100071E080E090E00E94100680914D0390915C
:102920004E03019711F40E94EF0D3FEFC31AD30A33
:102930004DE0C416D1041CF0CC24C394D12C81E109
:102940000E94F904892BB9F46CE271E080E090E018
:102950000E94100680914D0390914E03019711F44F
:102960000E94EF0D81E0C81AD1081C141D041CF050
:102970008CE0C82ED12C80E10E94F904892B89F4C7
:102980006CE271E080E090E00E94100680914D03BF
:1029900090914E03019709F05EC00E94EF0D95E003
:1029A0009C8BB601CE010E963AE0C316D1040CF012
:1029B00055C00E94321064EF71E0CE0108960E946B
:1029C0007510BE01625F7F4FCE0108960E94B30F63
:1029D000BC018EE994E00E945E10CE0108960E9430
:1029E000460FCE010E960E94460F8091A204909150
:1029F000A30446E0489F1001499F300C11243092F7
:102A000053032092520318E0812E912C67E072E06C
:102A10008EE994E00E94F60F81E0881A9108B1F7E0
:102A200080E290E08219930997FD0196959587952C
:102A30009093B1048093B0041092B3041092B20446
:102A400070E060E084EA94E00E948A100E94E6034D
:102A50000E947E0506CE25E02C8BA3CF0E9432106B
:102A600069EF71E0AACF0E94490E8FE00E94F9043D
:102A7000892BC1F46CE271E080E090E00E941006C6
:102A800080914D0390914E03019711F40E94EF0D38
:102A90002FEFA21AB20A34E6A316B1041CF073E1B8
:102AA000A72EB12C81E10E94F904892BC1F46CE2BC
:102AB00071E080E090E00E94100680914D039091BB
:102AC0004E03019711F40E94EF0D41E0A41AB108E2
:102AD00083E1A816B1041CF463E6A62EB12C80E1B4
:102AE0000E94F904892B89F46CE271E080E090E0A7
:102AF0000E94100680914D0390914E03019709F0BA
:102B00005EC00E94EF0D96E09C8BB501CE010E9643
:102B10003AE0A316B1040CF055C00E9432106DEFDC
:102B200071E0CE0108960E947510BE01625F7F4F72
:102B3000CE0108960E94B30FBC018EE994E00E947A
:102B40005E10CE0108960E94460FCE010E960E949E
:102B5000460F8091A2049091A30446E0489F100183
:102B6000499F300C1124309253032092520358E0B5
:102B7000852E912C67E072E08EE994E00E94F60FBA
:102B800081E0881A9108B1F780E290E082199309F8
:102B900097FD0196959587959093B1048093B00425
:102BA0001092B3041092B20470E060E084EA94E002
:102BB0000E948A100E94E6030E947E0556CD26E000
:102BC0002C8BA3CF0E94321062E072E0AACF6696EF
:102BD0000FB6F894DEBF0FBECDBFDF91CF911F912E
:102BE0000F91FF90EF90DF90CF90BF90AF909F90AC
:102BF0008F907F906F905F904F903F902F900895AF
:102C00002F923F924F925F926F927F928F929F92FC
:102C1000AF92BF92CF92DF92EF92FF920F931F93EA
:102C2000CF93DF93CDB7DEB7C654D1090FB6F89472
:102C3000DEBF0FBECDBF0E94490E132F082F2AA35F
:102C40003BA34CA35DA36EA37FA388A7642E712C26
:102C5000832E912CA22EB12C20E3A21A28EFB20AC7
:102C600068E072E0CE0189960E94751068E072E01B
:102C7000CE018F960E94751068E072E0CE01C59675
:102C80000E94751068E072E0CE01CB960E9475102C
:102C900068E072E0CE018F5B9F4F0E94751067E085
:102CA00072E0CE01C5960E94281066E072E0CE0167
:102CB000CB960E94281080914F039091500300976B
:102CC00009F0D4C184E190E090934A0380934903D2
:102CD000B301CE013AE0631671040CF0F7C14B96D4
:102CE0000E9432106DE772E0CE0101960E947510CD
:102CF000BE01655E7F4FCE0101960E94B30F0E9418
:102D0000A10FBC0188E994E00E945E10CE010196FB
:102D10000E94460FCE014B960E94460F68E072E07B
:102D2000CE0189960E9428108AE08816910434F416
:102D30006DE772E0CE0189960E94F60FB401CE01D4
:102D400089960E94C60F69E072E0113061F161E17D
:102D500072E0123041F16AE172E0133021F160E279
:102D600072E0143001F166E272E01530E1F06AE2DF
:102D700072E01630C1F06FE272E01730A1F064E348
:102D800072E0183081F06CE372E0193061F066E4B3
:102D900072E01A3041F06EE472E01B3021F01C301A
:102DA00031F467E572E0CE018F960E942810BE01D3
:102DB000615D7F4F88E994E00E94001067E072E057
:102DC00088E994E00E94F60FB501CE0101960E94B9
:102DD0003210BE016F5F7F4F88E994E00E940010BF
:102DE000CE0101960E94460F66E072E088E994E009
:102DF0000E94F60F60E672E082E994E00E942810DB
:102E0000609164037091650382E994E00E94C60FAB
:102E100066E672E082E994E00E94F60F66E072E0F6
:102E200082E994E00E94F60F69E672E08CE894E093
:102E30000E94281060916603709167038CE894E00B
:102E40000E94C60F6EE672E08CE894E00E94F60FD6
:102E50002CE0029F8001112400501F4F80914B03F2
:102E600090914C03019709F051C10E94490E2B8F9C
:102E70003C8F4D8F5E8F6F8F78A389A3632F70E097
:102E800030E0590180E3A81A88EFB80A8AE1E2E746
:102E9000F1E0DE01119601900D928A95E1F7225E34
:102EA0003F4FEDE6F1E02E9FC0012F9F900D3E9F1A
:102EB000900D11240197FB013197EE0FFF1F21E0C8
:102EC00030E02C0F3D1FE20FF31F20813181420FB4
:102ED000532F511D950123703327232B29F4633081
:102EE000710514F04F5F5F4F70E060E022EB37E058
:102EF000F901E370FF27EF2B11F46F5F7F4F2F5F16
:102F00003F4F2A153B05A4F3840F951F860F971F8B
:102F100065E070E00E94232CFC01EE0FFF1FE457D8
:102F2000FE4F60817181CE014B960E947510B801F1
:102F3000CE0101960E947510BE016B5C7F4FCE01E1
:102F400001960E94B30FBE01655E7F4F0E94B30FD2
:102F5000BE01655C7F4F0E94B30F68E974E00E9478
:102F6000B30F62E974E00E94B30F6CE874E00E9452
:102F7000B30FBC018EE994E00E945E10CE01019671
:102F80000E94460FCE014B960E94460F512C412CB9
:102F900096E0D92E26E0222E312C2091A2043091E9
:102FA000A304D29EC001D39E900D11242091AC04A5
:102FB0003091AD04820F931F02974816590608F00E
:102FC000DAC070E060E084EA94E00E948A10C201F6
:102FD000B1010E94232C4B01A090AC04B090AD0431
:102FE00031E0A31AB108A81AB90A8091AE049091F1
:102FF000AF043C0128E0621A710877FE04C03C016E
:1030000037E0631A7108759467948BEFA8168FEFF9
:10301000B8060CF4A0C02FEF8216920609F49BC0EC
:103020008091A2049091A30488169906C0F4E091BF
:103030009E04F0919F04309709F08AC0109200031B
:10304000E0E0F3E0CC24C394F12CE12C01E010E0AB
:103050002081A301B50184EA94E00E94C90831E00F
:10306000831A910886E0A81AB108CFCF8130910564
:1030700019F48EE190E028CE8230910519F488E2AF
:1030800090E022CE8330910519F482E390E01CCECB
:103090008430910519F48CE390E016CE85309105CB
:1030A00019F486E490E010CE8630910519F480E59D
:1030B00090E00ACE8730910519F48AE590E004CEBD
:1030C000089709F005CE84E690E0FECD01960E94B7
:1030D00032101C8E1B8E1E8E1D8E18A21F8EBE01DE
:1030E0006F5F7F4FCE014B960E945E10CE014B96D4
:1030F0000E94A10FBC0188E994E00E945E10CE01FD
:103100004B960E94460FCE01019606CEB801CE0125
:1031100001960E947510BE01655C7F4FCE0101963D
:103120000E94B30F68E974E00E94B30F62E974E093
:103130000E94B30F6CE874E00E94B30FBC018EE9EB
:1031400094E00E945E10CE0101960E94460F1ECFB1
:10315000E80DF91D77CF0E947E05609149037091BB
:103160004A03072E000C880B990B0E9410062FEFC4
:10317000421A520A12CFCE018F5B9F4F0E94460F18
:10318000CE01CB960E94460FCE01C5960E94460FF7
:10319000CE018F960E94460FCE0189960E94460F5F
:1031A000CA5BDF4F0FB6F894DEBF0FBECDBFDF9115
:1031B000CF911F910F91FF90EF90DF90CF90BF9034
:1031C000AF909F908F907F906F905F904F903F90C7
:1031D0002F9008958F929F92AF92BF92EF92FF929D
:1031E0000F931F93CF93DF93CDB7DEB763970FB6DF
:1031F000F894DEBF0FBECDBF0E94490E29833A83EB
:103200004B835C836D837E838F83062F10E08FB7A3
:10321000F89480906D0390906E03A0906F03B0902F
:1032200070038FBF809157039091580381309105AF
:1032300009F095C0852F6CE00E94172CF92E692F9C
:1032400070E089E0891708F478C0CE010E960E94DC
:1032500032106DE772E0CE0108960E947510BE0133
:10326000625F7F4FCE0108960E94B30FBC018EE9CA
:1032700094E00E945E10CE0108960E94460FCE0197
:103280000E960E94460FFF2009F462C08091FE0254
:103290009091FF027401E81AF90A84EFE81681E0C0
:1032A000F80608F083C067ED72E08EE994E00E94B2
:1032B000F60FB801CE010A3011050CF088C00E9649
:1032C0000E9432106DE772E0CE0108960E947510E0
:1032D000BE01625F7F4FCE0108960E94B30FBC0112
:1032E0008EE994E00E940010CE0108960E94460FDD
:1032F000CE010E960E94460F8091A2049091A304E5
:1033000046E0489F9001499F300D112430935303AC
:103310002093520300E210E0021B130B78011E14ED
:103320001F040CF061C067E072E08EE994E00E9437
:10333000F60F81E0E81AF108F2CFCE0108960E945C
:103340003210CE0108960E94F70ECE0108962BC0CF
:1033500060E772E08EE994E00E94281097CF892BF5
:1033600009F094CF652F70E0CE016A30710534F713
:103370000E960E9432106DE772E0CE0108960E9410
:103380007510BE01625F7F4FCE0108960E94B30F99
:10339000BC018EE994E00E945E10CE0108960E9466
:1033A000460FCE010E960E94460F70CF67E072E086
:1033B0008EE994E00E94F60F89EEE81683E0F806A5
:1033C00008F477CF9092FF028092FE0272CF0896A7
:1033D0000E943210BE01685F7F4F8EE994E00E9428
:1033E0000010CE01089686CFC80117FD019695956D
:1033F00087959093B1048093B0041092B304109217
:10340000B20470E060E084EA94E00E948A100E94B6
:10341000E6030E947E0563960FB6F894DEBF0FBEEA
:10342000CDBFDF91CF911F910F91FF90EF90BF9093
:10343000AF909F908F9008950C94D42A0C94CC2A2E
:103440001F920F920FB60F9211242F933F934F9319
:103450005F936F937F938F939F93AF93BF93EF93FC
:10346000FF9382EE93E00E944104FF91EF91BF91A0
:10347000AF919F918F917F916F915F914F913F910C
:103480002F910F900FBE0F901F9018951F920F92C3
:103490000FB60F9211242F938F939F93EF93FF9367
:1034A000E091F203F091F3038081E091F803F09151
:1034B000F90382FD1BC090818091FB038F5F8F73A6
:1034C0002091FC03821741F0E091FB03F0E0EE5104
:1034D000FC4F958F8093FB03FF91EF919F918F910C
:1034E0002F910F900FBE0F901F9018958081F4CFF1
:1034F0001F920F920FB60F9211242F933F938F9329
:103500009F93AF93BF9380916D0390916E03A091B1
:103510006F03B09170033091440323E0230F2D37E4
:1035200058F50196A11DB11D2093440380936D03AE
:1035300090936E03A0936F03B09370038091450343
:1035400090914603A0914703B09148030196A11DB5
:10355000B11D8093450390934603A0934703B09316
:103560004803BF91AF919F918F913F912F910F9001
:103570000FBE0F901F90189526E8230F0296A11DED
:10358000B11DD2CF1F920F920FB60F9211242F931D
:103590003F934F935F936F937F938F939F93AF93DB
:1035A000BF93EF93FF938091B900887F803609F431
:1035B0004AC0F0F5883209F4A7C018F5803109F443
:1035C0009BC0B8F4882309F4F9C0883009F494C08A
:1035D000FF91EF91BF91AF919F918F917F916F91EB
:1035E0005F914F913F912F910F900FBE0F901F90C1
:1035F0001895883109F488C0803251F78093BD0353
:1036000014C0803409F49DC040F48033B9F388338A
:10361000F9F68093BD0385ECB0C0803509F485C010
:10362000883509F496C0883499F60E944407D0CFB3
:10363000883909F48CC038F5883729F050F4883679
:1036400011F0803729F683E08093BF031092430383
:1036500057C0883809F47BC0803919F0803809F0E8
:10366000B7CF80914303803208F071C0E0914303EB
:1036700081E08E0F809343038091BB00F0E0ED5D0D
:10368000FC4F80833DC0803B39F0E0F4803A09F480
:1036900079C0883A09F09CCF84E08093BF031092F0
:1036A000220310922103E0917303F09174030995B2
:1036B0008091210381110FC081E08093210310923A
:1036C000010309C0803C09F4A6CF883C09F4A3CFCC
:1036D000883B09F07DCFE091220381E08E0F80933B
:1036E0002203F0E0EF5FFC4F80818093BB0090915C
:1036F00022038091210329C08091BA038093BB00EB
:1037000085EC8093BC0064CF9091BC038091BB0397
:10371000981758F5E091BC0381E08E0F8093BC03AD
:10372000F0E0E756FC4F8081E9CFE091BC0381E0F7
:103730008E0F8093BC038091BB00F0E0E756FC4FF6
:1037400080839091BC038091BB039817C8F285E8F1
:10375000D8CFE091BC0381E08E0F8093BC038091B1
:10376000BB00F0E0E756FC4F80838091BE038111DF
:103770005CCF81E08093B90384EA8093BC0010920F
:10378000BF0326CF85EC8093BC001092BF038091CD
:103790004303803230F4E0914303F0E0ED5DFC4FF1
:1037A00010826091430370E0E0917103F091720325
:1037B00083E293E00995109243030ACF1092BD0370
:1037C00034CFCF931092E5031092E40388EE93E098
:1037D000A0E0B0E08093E6039093E703A093E803B2
:1037E000B093E9032AE931E03093E3032093E20345
:1037F00025EC30E03093EF032093EE0324EC30E02F
:103800003093F1032093F00320EC30E03093F30386
:103810002093F20321EC30E03093F5032093F4037E
:1038200022EC30E03093F7032093F60326EC30E0EF
:103830003093F9032093F8031092FB031092FC03DA
:103840001092FD031092FE031092820410928104E4
:103850008093830490938404A0938504B09386049A
:103860008CEA91E09093800480937F0485E08093BC
:10387000D3048BE08093D404EFEBF5E0E491E09384
:10388000D504EBEAF5E0E491E093D60480E89EE30A
:10389000A0E0B0E08093DB049093DC04A093DD040F
:1038A000B093DE041092CC041092CB041092CA04A0
:1038B0001092C70481E0282F2150330BF901E656FE
:1038C000FA4FE491823009F4EF5F91E0980FEE2314
:1038D00009F4E3C08093C80481E08093C904109286
:1038E000CD041092A7041092A60440E250E0509339
:1038F000A9044093A80428E030E03093AB0420935F
:10390000AA045093AD044093AC043093AF042093C9
:10391000AE041092B9041092B1041092B004109247
:10392000B3041092B2048093B8042FEF3FEF3093AA
:10393000B7042093B6043093B5042093B404809365
:10394000BA041092BB041092BD041092BC048EEB1A
:1039500091E09093A5048093A4048AE08093BE0430
:1039600084E08093C20480E28093C10480E290E00E
:103970000E94512C9093C0048093BF0484E090E097
:103980000E94512C9093C6048093C50484E090E07B
:103990000E94512C9093C4048093C30490E080E073
:1039A000E091C304F091C404E80FF91F8083E09113
:1039B000C504F091C604E80FF91F10820196843007
:1039C000910571F7CFB7F89480918B04811127C0CE
:1039D000E0EBF5E08491E4ECF5E09491E82FF0E081
:1039E000EE0FFF1FE057FA4FA591B491EC91E92338
:1039F00021F461E08AE00E94220561E08AE00E94F1
:103A0000BA058CB580618CBD8CB580648CBD61E0DD
:103A10008DE00E94BA0561E08BE00E94BA058091BA
:103A20008B048F5F80938B04CFBF61E08091BE04D5
:103A30000E94BA0570E060E084EA94E00E948A1077
:103A400060E08FE00E94500567E08BE00E94500527
:103A500060E089E00E94500561E08CE00E94500522
:103A600067E08AE00E94500568E072E08EE994E029
:103A70000E94751068E072E088E994E00E94751079
:103A800068E072E082E994E00E94751068E072E0FC
:103A90008CE894E0CF910C947510892F0CCFCF93C4
:103AA000DF93CDB7DEB72F970FB6F894DEBF0FBE0A
:103AB000CDBF789484B5826084BD84B5816084BDB7
:103AC00085B5826085BD85B5816085BD80916E00BC
:103AD000816080936E0010928100809181008260ED
:103AE000809381008091810081608093810080912A
:103AF00080008160809380008091B1008460809319
:103B0000B1008091B00081608093B00080917A0014
:103B1000846080937A0080917A00826080937A003A
:103B200080917A00816080937A0080917A00806829
:103B300080937A001092C100E091F203F091F303B8
:103B400002E00083E091EE03F091EF031082E09138
:103B5000F003F091F1038FEC80831092FA03E0916F
:103B6000F603F091F70386E08083E091F403F0918F
:103B7000F503808180618083E091F403F091F50387
:103B8000808188608083E091F403F091F503808167
:103B900080688083E091F403F091F50380818F7D4C
:103BA000808361E086E00E94BA0561E089E00E94BE
:103BB000BA0561E082E00E94BA0562E080E10E94FD
:103BC000BA0562E08FE00E94BA0562E081E10E94DE
:103BD000BA0562E08091D3040E94BA0580E398EFB1
:103BE000AFEFBFEF8093D7049093D804A093D9048C
:103BF000B093DA0490E080E00E941E1AF82E90E064
:103C0000909369038093680381E090E00E941E1AFC
:103C100090E09093500380934F0382E090E00E94E5
:103C20001E1A90E0909356038093550383E090E032
:103C30000E941E1A90E090935B0380935A0384E0E5
:103C400090E00E941E1A90E090936B0380936A03A9
:103C500085E090E00E941E1A90E090934E038093BE
:103C60004D0386E090E00E941E1A90E090934C0372
:103C700080934B0387E090E00E941E1A90E090939F
:103C800058038093570388E090E00E941E1A90E04A
:103C900090935D0380935C036AE070E080E090E0C5
:103CA0000E9410060E9488056CE18EE00E94FB07CE
:103CB0006AE070E080E090E00E94100611E010934E
:103CC0007503E8E6EE2EE0929703109276031092C9
:103CD000980362E08FE794E00E94CC070E941303F0
:103CE00081E090E00E94030E8FE794E00E94850738
:103CF000682F6F7B82E00E94FB076AE070E080E043
:103D000090E00E9410060E94880510937503E092CF
:103D10009703109276031092980367E08FE794E080
:103D20000E94CC0760E18FE794E00E94CC070E94DC
:103D300013036F2D8AE00E945005E091C304F091B7
:103D4000C40483E08083E091C304F091C404018340
:103D5000E091C304F091C4041283E091C304F09194
:103D6000C4041382E091C504F091C6048083E091FD
:103D7000C504F091C6048183E091C504F091C604A6
:103D80008283E091C504F091C60483830E94EF0D05
:103D9000F0E2EF2EF12C8FB7F89420906D03309065
:103DA0006E0340906F03509070038FBF0E94490EC6
:103DB00029833A834B835C836D837E838F8361E0A9
:103DC00070FF60E089E00E9422050E94D9108FE018
:103DD0000E94F9046C0181E0C114D10409F480E06F
:103DE0008093510381E10E94F90421E0892B09F4B9
:103DF00020E02093540390E080E00E941E1A90E09F
:103E0000909369038093680381E090E00E941E1AFA
:103E100090E09093500380934F0382E090E00E94E3
:103E20001E1A90E0909356038093550383E090E030
:103E30000E941E1A90E090935B0380935A0384E0E3
:103E400090E00E941E1A90E090936B0380936A03A7
:103E500085E090E00E941E1A082F10E010934E0398
:103E600000934D0386E090E00E941E1A90E090932C
:103E70004C0380934B0387E090E00E941E1A90E071
:103E8000909358038093570388E090E00E941E1A95
:103E900090E090935D0380935C03CD2809F0CDC33F
:103EA0006CE271E080E090E00E94100601301105A4
:103EB00011F40E94EF0D64E0A62EB12C76E0872E5F
:103EC0008FE00E94F904892BD9F46CE271E080E064
:103ED00090E00E94100680914D0390914E0301974F
:103EE00011F40E94EF0D80915C0390915D030196A7
:103EF000853091050CF0E6C090935D0380935C03E0
:103F000081E10E94F904892BC9F46CE271E080E040
:103F100090E00E94100680914D0390914E0301970E
:103F200011F40E94EF0D80915C0390915D03019765
:103F300097FDCDC090935D0380935C0380E10E9468
:103F4000F90499249394892B81F46CE271E080E068
:103F500090E00E94100680914D0390914E030197CE
:103F600011F40E94EF0D52E0952E80915C03909128
:103F70005D0363E772E0009799F069E772E08130D2
:103F8000910571F06FE772E08230910549F065E8C4
:103F900072E08330910521F0049731F46BE872E010
:103FA0008EE994E00E9428108091A2049091A304CD
:103FB000889E6001899ED00C1124D0925303C09238
:103FC000520308E010E067E072E08EE994E00E949E
:103FD000F60F01501109B9F7C7018C199D0997FD1A
:103FE0000196959587959093B1048093B0041092B3
:103FF000B3041092B20470E060E084EA94E00E949E
:104000008A100E94E6030E947E0521E0921609F4C0
:1040100057CF2FE0A22EB12C36E0832E8FE00E94E6
:10402000F904892BD9F46CE271E080E090E00E9401
:10403000100680914D0390914E03019711F40E9458
:10404000EF0D80916803909169030196803191058D
:104050000CF042C0909369038093680381E10E9451
:10406000F904892BC9F46CE271E080E090E00E94D1
:10407000100680914D0390914E03019711F40E9418
:10408000EF0D8091680390916903019797FD29C016
:10409000909369038093680380E10E94F904892B5F
:1040A00029F56CE271E080E090E00E9410068091BA
:1040B0004D0390914E03019711F40E94EF0D83E0A0
:1040C000982E16C010925D0310925C0319CFB09227
:1040D0005D03A0925C0332CF1092690310926803D3
:1040E000BDCFB0926903A0926803D6CF92E0992E1B
:1040F0006091680370916903CB010197099708F0FB
:104100004AC2CE0101960E94321061E972E0CE01EE
:1041100008960E947510BE016F5F7F4FCE01089612
:104120000E94B30FBC018EE994E00E945E10CE01A4
:1041300008960E94460FCE0101960E94460F80917C
:10414000680390916903892B31F46AE972E08EE982
:1041500094E00E9428108091A2049091A304889E6C
:104160006001899ED00C1124D0925303C092520357
:1041700008E010E067E072E08EE994E00E94F60F3C
:1041800001501109B9F7C7018C199D0997FD0196D6
:10419000959587959093B1048093B0041092B304E1
:1041A0001092B20470E060E084EA94E00E948A1009
:1041B0000E94E6030E947E05609168038AE00E94E7
:1041C000500532E0931609F429CFA8E0AA2EB12CAD
:1041D000BEE16B2E712C14E1812E912C8FE00E9498
:1041E000F904892BD9F46CE271E080E090E00E9440
:1041F000100680914D0390914E03019711F40E9497
:10420000EF0D80914F0390915003019689309105F5
:104210000CF0C8C19093500380934F0381E10E943A
:10422000F904892BC9F46CE271E080E090E00E940F
:10423000100680914D0390914E03019711F40E9456
:10424000EF0D80914F0390915003019797FDAFC1FF
:104250009093500380934F0380E10E94F904892BCF
:1042600009F0AAC16CE271E080E090E00E941006C3
:1042700080914D0390914E03019709F0A0C10E94D7
:10428000EF0D44E04F8760914F0370915003CE01D2
:1042900001960E9432106FE972E0CE0108960E94EA
:1042A0007510BE016F5F7F4FCE0108960E94B30F5D
:1042B000BC018EE994E00E945E10CE0108960E9437
:1042C000460FCE0101960E94460F8091A204909164
:1042D000A30426E0289F6001299FD00C1124D092CE
:1042E0005303C092520308E010E067E072E08EE9E9
:1042F00094E00E94F60F01501109B9F7C7018C191B
:104300009D0997FD0196959587959093B1048093AB
:10431000B0041092B3041092B20470E060E084EA3A
:1043200094E00E948A100E94E6030E947E0580911C
:104330004F0390915003009709F044C190924A03B3
:10434000809249036091490370914A03072E000C43
:10435000880B990B0E9410063F85333009F43ECF3D
:1043600014E0AA24A394B12C06E0143009F467C128
:1043700088248394912C06E0153009F4EDC188243B
:104380008394912C06E0163009F46AC2AA24A394FF
:10439000B12C7724739406E0173009F4E5C27CE071
:1043A000A72EB12CE7E18E2E912C06E0183009F4EF
:1043B000E4C30BE3802E912C86E0782E193009F0AF
:1043C000CBC48FE00E94F904892BD9F46CE271E030
:1043D00080E090E00E94100680914D0390914E0382
:1043E000019711F40E94EF0D80915A0390915B03A5
:1043F00001968C3391050CF0A0C490935B038093DD
:104400005A0381E10E94F904892BC9F46CE271E03E
:1044100080E090E00E94100680914D0390914E0341
:10442000019711F40E94EF0D80915A0390915B0364
:10443000019797FD87C490935B0380935A0380E1B3
:104440000E94F904892B09F04CC06CE271E080E015
:1044500090E00E94100680914D0390914E030197C9
:1044600011F40E94EF0D6091680390E080E00E94DB
:104470001C1A60914F0381E090E00E941C1A609129
:10448000550382E090E00E941C1A60915A0383E079
:1044900090E00E941C1A60916A0384E090E00E9400
:1044A0001C1A60914D0385E090E00E941C1A6091F7
:1044B0004B0386E090E00E941C1A6091570387E04E
:1044C00090E00E941C1A60915C0388E090E00E94DA
:1044D0001C1A04EF11E00E94991001501109D9F73C
:1044E00010E060915A0370915B03CE0101966A302F
:1044F00071050CF02CC40E94321069ED72E0CE01FF
:1045000008960E947510BE016F5F7F4FCE0108961E
:104510000E94B30FBC018EE994E00E945E10CE01B0
:1045200008960E94460FCE0101960E94460F809188
:10453000A2049091A304789E5001799EB00C11249E
:10454000B0925303A0925203F8E0CF2ED12C67E033
:1045500072E08EE994E00E94F60F31E0C31AD108B0
:10456000B1F7C7018A199B0997FD01969595879523
:104570009093B1048093B0041092B3041092B204EB
:1045800070E060E084EA94E00E948A100E94E603F2
:104590000E947E0513CFCE0101960E94321066E97B
:1045A00072E0B5CD1092500310924F0337CEB09207
:1045B0005003A0924F0350CE53E05F8764CE84E057
:1045C0008F8761CE8130910529F470924A03609201
:1045D0004903B8CE28E230E08230910549F142E348
:1045E00050E083309105A1F08430910539F48CE3DB
:1045F00090E090934A0380934903A4CE26E430E0F0
:1046000085309105A9F08630910539F440E550E0F8
:1046100050934A034093490395CE8730910519F48E
:104620008AE590E0E6CF089709F08CCE24E630E0EA
:1046300030934A032093490385CE10E099CE8FE052
:104640000E94F904892B99F4C0904D03D0904E0339
:104650006CE271E080E090E00E941006CA94CD28E0
:1046600011F40E94EF0DB0924E03A0924D0381E130
:104670000E94F904892B99F4C0904D03D0904E0309
:104680006CE271E080E090E00E941006CA94CD28B0
:1046900011F40E94EF0D10924E0310924D0380E131
:1046A0000E94F904C0904D03D0904E03892B09F06D
:1046B00049C06CE271E080E090E00E94100615E0D5
:1046C00081E0C816D10409F042C00E94EF0D15E048
:1046D00064EA72E08EE994E00E9428108091A204BE
:1046E0009091A304089F4001099F900C112490927F
:1046F00053038092520368E0C62ED12C67E072E02B
:104700008EE994E00E94F60F21E0C21AD108B1F7B9
:10471000C7018819990997FD0196959587959093FA
:10472000B1048093B0041092B3041092B20470E00C
:1047300060E084EA94E00E948A100E94E6030E94EE
:104740007E0513CE91E0C916D10409F4C1CFCD285E
:1047500029F669EA72E0BECF8FE00E94F904892B46
:1047600091F46CE271E080E090E00E94100680918C
:104770004D0390914E03019711F40E94EF0D10929A
:104780004C0310924B0381E10E94F904892B91F4B0
:104790006CE271E080E090E00E94100680914D0391
:1047A00090914E03019711F40E94EF0D90924C03EB
:1047B00080924B0380E10E94F904892B79F46CE22A
:1047C00071E080E090E00E94100680914D0390918E
:1047D0004E03019711F40E94EF0D16E080914B03F8
:1047E00090914C036FEA72E0019711F065EB72E073
:1047F0008EE994E00E9428108091A2049091A30475
:10480000089F5001099FB00C1124B0925303A0924D
:10481000520338E0C32ED12C67E072E08EE994E0B9
:104820000E94F60F31E0C31AD108B1F7C7018A1907
:104830009B0997FD0196959587959093B104809378
:10484000B0041092B3041092B20470E060E084EA05
:1048500094E00E948A100E94E6030E947E058CCD9F
:104860008FE00E94F904892B91F46CE271E080E002
:1048700090E00E94100680914D0390914E030197A5
:1048800011F40E94EF0D109258031092570381E12A
:104890000E94F904892B91F46CE271E080E090E0D1
:1048A0000E94100680914D0390914E03019711F4E0
:1048B0000E94EF0D909258038092570380E10E946E
:1048C000F904892B79F46CE271E080E090E00E94B9
:1048D000100680914D0390914E03019711F40E94B0
:1048E000EF0D17E080915703909158036BEB72E046
:1048F000019711F060EC72E08EE994E00E942810BC
:104900008091A2049091A304089F5001099FB00CCC
:104910001124B0925303A0925203A8E0CA2ED12CC6
:1049200067E072E08EE994E00E94F60F41E0C41A5D
:10493000D108B1F7C7018A199B0997FD0196959592
:1049400087959093B1048093B0041092B3041092B1
:10495000B20470E060E084EA94E00E948A100E9451
:10496000E6030E947E050FCD8FE00E94F904892B9B
:1049700091F46CE271E080E090E00E94100680917A
:104980004D0390914E03019711F40E94EF0DB092E8
:104990006B03A0926A0381E10E94F904892B91F4D0
:1049A0006CE271E080E090E00E94100680914D037F
:1049B00090914E03019711F40E94EF0D10926B033A
:1049C00010926A0380E10E94F904892BC9F46CE219
:1049D00071E080E090E00E94100680914D0390917C
:1049E0004E03019711F40E94EF0D80916A0390919C
:1049F0006B038130910509F049C070926C0318E097
:104A000080916A0390916B038130910509F077C022
:104A100065EC72E08EE994E00E9428108091A20477
:104A20009091A304089F4001099F900C112490923B
:104A300053038092520358E0C52ED12C67E072E0F8
:104A40008EE994E00E94F60F81E0C81AD108B1F710
:104A5000C7018819990997FD0196959587959093B7
:104A6000B1048093B0041092B3041092B20470E0C9
:104A700060E084EA94E00E948A100E94E6030E94AB
:104A80007E0561E082E00E94220586CC892B09F038
:104A90006BCF6091680390E080E00E941C1A6091E7
:104AA0004F0381E090E00E941C1A60916A0384E049
:104AB00090E00E941C1A60914D0385E090E00E94F6
:104AC0001C1A60914B0386E090E00E941C1A6091D2
:104AD000570387E090E00E941C1A60915C0388E015
:104AE00090E00E941C1A64EFC62EDD24D3940E942D
:104AF000991051E0C51AD108D1F710E081CF892B68
:104B000009F04ACC6AEC72E08EE994E00E94281029
:104B10008091A2049091A304089F4001099F900CEA
:104B20001124909253038092520338E0C32ED12C6B
:104B300067E072E08EE994E00E94F60F91E0C91AF6
:104B4000D108B1F7C7018819990997FD0196959584
:104B500087959093B1048093B0041092B30410929F
:104B6000B20470E060E084EA94E00E948A100E943F
:104B7000E6030E947E0560E085CF8FE00E94F90485
:104B8000892B29F56CE271E080E090E00E9410062C
:104B900080914D0390914E03019711F40E94EF0D07
:104BA00080915503909156030196909356038093FC
:104BB000550320915703309158032115310509F011
:104BC0009EC0489724F0109256031092550381E13D
:104BD0000E94F904892B29F56CE271E080E090E0F5
:104BE0000E94100680914D0390914E03019711F49D
:104BF0000E94EF0D80915503909156030197909379
:104C00005603809355032091570330915803211583
:104C1000310509F080C097FF04C09092560380923E
:104C2000550380E10E94F904892B79F46CE271E06C
:104C300080E090E00E94100680914D0390914E0319
:104C4000019711F40E94EF0D19E0609155037091E6
:104C50005603CE0101966A3071050CF069C00E94BE
:104C6000321060ED72E0CE0108960E947510BE0110
:104C70006F5F7F4FCE0108960E94B30FBC018EE993
:104C800094E00E945E10CE0108960E94460FCE016D
:104C900001960E94460F8091A2049091A304089F60
:104CA0003001099F700C11247092530360925203DB
:104CB000B8E0CB2ED12C67E072E08EE994E00E9440
:104CC000F60F21E0C21AD108B1F7C701861997097A
:104CD00097FD0196959587959093B1048093B004C4
:104CE0001092B3041092B20470E060E084EA94E0A1
:104CF0000E948A100E94E6030E947E0557CB213055
:104D0000310509F064CF0D970CF461CF3093560351
:104D1000209355035CCF2130310509F082CF18165E
:104D200019060CF47ECFB0925603A092550379CFAA
:104D30000E94321065ED72E096CF10925B031092E4
:104D40005A035FCB90925B0380925A0378CB0E9408
:104D500032106EED72E0D3CB81E10E94F9048C0138
:104D600081E00115110509F480E08093540384E08B
:104D700090E00E941E1A90E090936B0380936A0368
:104D8000012B09F054C080916C03882309F459C1A8
:104D900010926C031092590360E082E00E94220599
:104DA0000CE211E076E0972E6AEC72E08EE994E076
:104DB0000E9428108091A2049091A304989E500113
:104DC000999EB00C1124B0925303A092520368E054
:104DD000C62ED12C67E072E08EE994E00E94F60FB7
:104DE00041E0C41AD108B1F7C7018A199B0997FDA0
:104DF0000196959587959093B1048093B004109295
:104E0000B3041092B20470E060E084EA94E00E947F
:104E10008A100E94E6030E947E050150110909F0E4
:104E2000C3CF6CE271E080E090E00E9410068091B8
:104E30006C03882309F4B8C081E10E94F9040E9440
:104E4000490E952F288739874A875B876C877D872E
:104E50008E87262F30E040915A0350915B03BA01B0
:104E60006E5F7F4F2617370711F410925903609138
:104E70005703709158036115710509F02BC16091BA
:104E80005503709156039617170671F424173507CA
:104E900059F480916A0390916B03019729F481E0A2
:104EA000809359030E94EA1880915903882309F4DA
:104EB00023C10E94490E29833A834B835C836D830F
:104EC0007E838F830E94EA1861E086E00E942205BB
:104ED00061E082E00E94220562E370E080E090E001
:104EE0000E94100660E086E00E94220560E082E0F9
:104EF0000E94220562E370E080E090E00E941006CC
:104F000061E086E00E94220561E082E00E942205C5
:104F100062E370E080E090E00E94100660E086E0CE
:104F20000E94220560E082E00E94220562E370E0B8
:104F300080E090E00E94100661E086E00E94220579
:104F400061E082E00E94220562E370E080E090E090
:104F50000E94100660E086E00E94220560E082E088
:104F60000E94220562E370E080E090E00E9410065B
:104F700061E086E00E94220561E082E00E94220555
:104F80006AEF70E080E090E00E94100660E086E04A
:104F90000E94220560E082E00E9422056AEF70E034
:104FA00080E090E00E94100680916A0390916B036C
:104FB00061E0019709F060E082E00E9422056091C3
:104FC0006803709169036115710529F580E4809388
:104FD0007C0080917A00806480937A0080917A00CE
:104FE00086FDFCCF8091780020917900322F282F08
:104FF000032E000C440B550B2F5F33404109510920
:10500000AFE0B0E00E94012B21E03CEF4FEF5FEFFB
:105010000E94E22A622F8AE00E9450050E94430605
:10502000882351F08091D4048B3009F46EC020F0B5
:105030008551823008F488C060E070E080EC9FE722
:105040006BC081E080936C0361E082E00E942205E6
:105050000CE211E046E0942E65EC72E08EE994E0FB
:105060000E9428108091A2049091A304989E500160
:10507000999EB00C1124B0925303A092520338E0D1
:10508000C32ED12C67E072E08EE994E00E94F60F07
:1050900051E0C51AD108B1F7C7018A199B0997FDDC
:1050A0000196959587959093B1048093B0041092E2
:1050B000B3041092B20470E060E084EA94E00E94CD
:1050C0008A100E94E6030E947E050150110909F032
:1050D000C3CFA7CE6130710509F0E6CE892F6CE011
:1050E0000E94172C692F80915503909156036817E1
:1050F000190609F0D9CECACE60E086E00E942205EA
:1051000060E082E00E9422054FCF6091CE0470E003
:1051100090E080E00E94D1290E94E12B7093670308
:10512000609366030E944306882349F08091D4046B
:105130008B3059F120F08551823008F481C060E055
:1051400070E080EC9FE728C06091CE0470E090E0B2
:1051500080E00E94D12920E030E040E853E40E9442
:105160000E2A4B015C016091CF0470E090E080E07A
:105170000E94D329A50194010E94752B2DEC3CECD3
:105180004CEC5DE30E940E2AC7CF6091D00470E022
:1051900090E080E00E94D12920E030E040E050E43F
:1051A0000E94742B0E94E12B70936503609364034B
:1051B0008091600390916103A0916203B0916303B9
:1051C000A2019101281B390B4A0B5B0BDA01C901C3
:1051D000883E9340A105B10588F02092600330928B
:1051E0006103409262035092630380915E03909149
:1051F0005F03019690935F0380935E0380915C034D
:1052000090915D03009709F04AC080915E039091F0
:105210005F038F309105D0F50E94EA180E94D910E3
:1052200080E090E0892B11F40C94CB1E0E942D0499
:10523000882311F40C94CB1E0E9400000C94CB1E0A
:105240001091D004612F6F7770E090E080E00E94B1
:10525000D32920E030E040E853E40E940E2A4B01BD
:105260005C016091D10470E090E080E00E94D3295D
:10527000A50194010E94752B2DEC3CEC4CEC5DE3F8
:105280000E940E2A17FF88CF905886CF0F9744F2BE
:105290000E94001610925F0310925E03C1CF81300E
:1052A000910561F480915E0390915F038E319105C9
:1052B00008F4B2CF4E970CF4B3CFEACF8230910509
:1052C00061F480915E0390915F038D32910508F443
:1052D000A3CF8D970CF4A4CFDBCF8330910561F47D
:1052E00080915E0390915F038C33910508F494CF15
:1052F000CC970CF495CFCCCF049709F091CF809147
:105300005E0390915F038B34910508F485CF8B3455
:1053100091050CF485CFBCCF8CE894E00E94460F39
:1053200082E994E00E94460F88E994E00E94460FCB
:105330008EE994E00C94460FBB274A3031F4992350
:1053400022F4BDE2909581959F4F0C94A829BB272C
:10535000FB015527AA27880F991FAA1FA41710F031
:10536000A41B83955051B9F7A05DAA3308F0A95D3D
:10537000A193009779F7B111B1931192CB010C94DD
:10538000C129DC01FC01672F71917723E1F7329786
:1053900004C07C916D9370836291AE17BF07C8F310
:1053A0000895E89409C097FB3EF490958095709518
:1053B00061957F4F8F4F9F4F9923A9F0F92F96E961
:1053C000BB279395F695879577956795B795F111D6
:1053D000F8CFFAF4BB0F11F460FF1BC06F5F7F4F73
:1053E0008F4F9F4F16C0882311F096E911C0772385
:1053F00021F09EE8872F762F05C0662371F096E88E
:10540000862F70E060E02AF09A95660F771F881F5C
:10541000DAF7880F9695879597F908950E94212AC3
:105420000C94922A0E94842A38F00E948B2A20F041
:10543000952311F00C947B2A0C94812A11240C944E
:10544000C62A0E94A32A70F3959FC1F3950F50E0DE
:10545000551F629FF001729FBB27F00DB11D639F26
:10546000AA27F00DB11DAA1F649F6627B00DA11DCC
:10547000661F829F2227B00DA11D621F739FB00D72
:10548000A11D621F839FA00D611D221F749F3327E2
:10549000A00D611D231F849F600D211D822F762F7B
:1054A0006A2F11249F5750409AF0F1F088234AF058
:1054B000EE0FFF1FBB1F661F771F881F91505040C4
:1054C000A9F79E3F510580F00C947B2A0C94C62AC4
:1054D0005F3FE4F3983ED4F3869577956795B7954B
:1054E000F795E7959F5FC1F7FE2B880F911D969565
:1054F000879597F9089597F99F6780E870E060E0D5
:1055000008959FEF80EC089500240A94161617065C
:1055100018060906089500240A94121613061406A4
:1055200005060895092E0394000C11F4882352F007
:10553000BB0F40F4BF2B11F460FF04C06F5F7F4FBF
:105540008F4F9F4F089557FD9058440F551F59F0A6
:105550005F3F71F04795880F97FB991F61F09F3F60
:1055600079F087950895121613061406551FF2CF89
:105570004695F1DF08C0161617061806991FF1CFD9
:1055800086957105610508940895E894BB27662700
:105590007727CB0197F90895F999FECF92BD81BD88
:1055A000F89A992780B50895262FF999FECF1FBA4A
:1055B00092BD81BD20BD0FB6F894FA9AF99A0FBE3C
:1055C00001960895052E97FB1EF400940E94F92A77
:1055D00057FD07D00E94432B07FC03D04EF40C94D8
:1055E000F92A50954095309521953F4F4F4F5F4F89
:1055F000089590958095709561957F4F8F4F9F4F3F
:1056000008950E94652BA59F900DB49F900DA49FB7
:10561000800D911D112408952F923F924F925F9219
:105620006F927F928F929F92AF92BF92CF92DF92B2
:10563000EF92FF920F931F93CF93DF93CDB7DEB717
:10564000CA1BDB0B0FB6F894DEBF0FBECDBF0994AB
:105650002A88398848885F846E847D848C849B8402
:10566000AA84B984C884DF80EE80FD800C811B8110
:10567000AA81B981CE0FD11D0FB6F894DEBF0FBE3F
:10568000CDBFED010895A1E21A2EAA1BBB1BFD019F
:105690000DC0AA1FBB1FEE1FFF1FA217B307E40711
:1056A000F50720F0A21BB30BE40BF50B661F771F69
:1056B000881F991F1A9469F7609570958095909549
:1056C0009B01AC01BD01CF010895A29FB001B39F22
:1056D000C001A39F700D811D1124911DB29F700DFB
:1056E000811D1124911D08955058BB27AA270E949F
:1056F0008C2B0C94922A0E94842A38F00E948B2AC8
:1057000020F039F49F3F19F426F40C94812A0EF40A
:10571000E095E7FB0C947B2AE92F0E94A32A58F31B
:10572000BA17620773078407950720F079F4A6F586
:105730000C94C52A0EF4E0950B2EBA2FA02D0B0168
:10574000B90190010C01CA01A0011124FF27591BC6
:1057500099F0593F50F4503E68F11A16F040A22FCC
:10576000232F342F4427585FF3CF4695379527953D
:10577000A795F0405395C9F77EF41F16BA0B620B3C
:10578000730B840BBAF09150A1F0FF0FBB1F661F83
:10579000771F881FC2F70EC0BA0F621F731F841FC6
:1057A00048F4879577956795B795F7959E3F08F0EC
:1057B000B0CF9395880F08F09927EE0F97958795AE
:1057C00008950E94E82B6894B1110C94C62A08959C
:1057D0000E94AB2A88F09F5798F0B92F9927B751AC
:1057E000B0F0E1F0660F771F881F991F1AF0BA9585
:1057F000C9F714C0B13091F00E94C52AB1E00895F4
:105800000C94C52A672F782F8827B85F39F0B93FE5
:10581000CCF3869577956795B395D9F73EF4909537
:105820008095709561957F4F8F4F9F4F0895991B7D
:1058300079E004C0991F961708F0961B881F7A9587
:10584000C9F78095089597FB072E16F4009407D0AA
:1058500077FD09D00E94372C07FC05D03EF49095C7
:1058600081959F4F0895709561957F4F0895AA1B6C
:10587000BB1B51E107C0AA1FBB1FA617B70710F03B
:10588000A61BB70B881F991F5A95A9F7809590956D
:10589000BC01CD010895EE0FFF1F0590F491E02D9E
:1058A00009940F931F93CF93DF938230910510F4E7
:1058B00082E090E0E091E204F091E30430E020E047
:1058C000B0E0A0E0309799F42115310509F44AC001
:1058D000281B390B24303105D8F58A819B8161154D
:1058E000710589F1FB0193838283FE0111C0408120
:1058F00051810281138148175907E0F04817590771
:1059000099F4109761F012960C93129713961C93CA
:105910003296CF01DF91CF911F910F91089500939F
:10592000E2041093E304F4CF2115310551F042173E
:10593000530738F0A901DB019A01BD01DF01F8012D
:10594000C1CFEF01F9CF9093E3048093E204CDCF70
:10595000FE01E20FF31F81939193225031093983A5
:105960002883D7CF2091E0043091E104232B41F428
:1059700020916E0130916F013093E1042093E00497
:1059800020916C0130916D012115310541F42DB745
:105990003EB74091700150917101241B350BE0918D
:1059A000E004F091E104E217F307A0F42E1B3F0B93
:1059B0002817390778F0AC014E5F5F4F2417350781
:1059C00048F04E0F5F1F5093E1044093E004819331
:1059D00091939FCFF0E0E0E09CCFCF93DF930097CF
:1059E000E9F0FC01329713821282A091E204B09197
:1059F000E304ED0130E020E01097A1F42081318133
:105A0000820F931F2091E0043091E1042817390799
:105A100009F061C0F093E104E093E004DF91CF91DD
:105A20000895EA01CE17DF07E8F54A815B819E0100
:105A300041155105B1F7E901FB83EA834991599179
:105A4000C40FD51FEC17FD0761F480819181029688
:105A5000840F951FE90199838883828193819B83B9
:105A60008A83F0E0E0E012968D919C911397009765
:105A7000B9F52D913C911197CD010296820F931F9C
:105A80002091E0043091E1042817390739F6309766
:105A900051F51092E3041092E204B093E104A09354
:105AA000E004BCCFD383C28340815181840F951F12
:105AB000C817D90761F44E5F5F4F88819981480FFD
:105AC000591F518340838A819B819383828321154F
:105AD000310509F0B0CFF093E304E093E2049ECFE8
